:020000041000EA
:1000000000B5324B212058609868022188439860DF
:10001000D860186158612E4B002199600221596106
:100020000121F02299502B49196001219960352056
:1000300000F044F80222904214D00621196600F024
:1000400034F8196E01211966002018661A6600F04E
:100050002CF8196E196E196E052000F02FF8012189
:100060000842F9D1002199601B49196000215960AB
:100070001A491B48016001219960EB211966A021F2
:10008000196600F012F800219960164914480160C1
:100090000121996001BC002800D000471248134993
:1000A000086003C880F30888084703B5996A0420EC
:1000B0000142FBD001200142F8D103BD02B5186610
:1000C0001866FFF7F2FF186E186E02BD00000240BE
:1000D000000000180000070000035F00212200005C
:1000E000F4000018222000A00001001008ED00E03C
:1000F00000000000000000000000000074B24E7A12
:1001000000200420F7010010CB010010CD010010E9
:10011000C9010010C9010010C9010010C901001077
:10012000C9010010C9010010C9010010CF01001061
:10013000C9010010C9010010D1010010D301001045
:10014000C1010010C1010010C1010010C101001067
:10015000C1010010C1010010C1010010C101001057
:10016000C1010010C1010010C1010010C101001047
:10017000C1010010C1010010C1010010C101001037
:10018000C1010010C1010010C1010010C101001027
:10019000C1010010C1010010C1010010C101001017
:1001A000C1010010C1010010C1010010C101001007
:1001B000C1010010C1010010C1010010C1010010F7
:1001C000EFF30580103800BE00BE00BE00BE00BECA
:1001D00000BE00BEF2EB8871DC3F0110FC3F011055
:1001E0003802001090A31AE700201E49086006C8D4
:1001F00081F3088810471C480068002801D00020BF
:10020000F3E70DA40ECC002902D000F012F8F9E7B4
:100210001649174A002000E001C19142FCD115495E
:100220008847154988471549884700BEFDE701C939
:1002300001C29A42FBD37047FC3F0110C00000206E
:10024000301100206C500110000004200000042038
:100250006C50011000100420001004200000000069
:100260007047000008ED00E0000000D030110020D1
:1002700078BF002041690010810200103969001028
:1002800010B506F065FE00F019F801F023F801F052
:1002900037F9FCE770B5084CA369DB060AD41025D2
:1002A000A3691D42FCD12068C0B201F081F9A369A5
:1002B0001D42F5D070BDC04600800340F0B5192046
:1002C00085B002F06DFBD026802301AC220001270F
:1002D0009B0436067362B361304B23CB23C220CC20
:1002E000280002F05DFB3B00AB400022B36201211D
:1002F000280002F02DFB04AB9C42F0D10224284DD3
:100300002849280008F032FE274A6B68146007224B
:10031000296823405140C8320A40244907200A6016
:10032000234A0121136002F0F9FA0121062002F0AC
:10033000F5FA002008F00EFE012002F031FB746295
:100340000220746102F02CFB04230320736202F08C
:1003500027FB08239621174C7362200073618901E3
:1003600003F054FA002301222000082103F0DEFAF2
:100370000221042002F0D2FA0221052002F0CEFA76
:100380005023A363626B183B13400B4A15200B49A3
:10039000136002F021FC05B0F0BDC046DC950010F2
:1003A00000C00340002D310104F0034000D00340A1
:1003B00004E00340008003403490034095020010A5
:1003C00010B5441E002805D0FA20800003F0ACF9D7
:1003D000013CF9D210BDC0460122D02382401B0649
:1003E0005B6813405A425341D8B27047D0238022F1
:1003F0001B069204002801D05A6170479A61FCE7FD
:1004000010B500290AD044182021054A93691942E1
:10041000FCD1037801301360A042F7D110BDC04673
:1004200000800340D02304221B06002801D05A611B
:1004300070479A61FCE7C04610B50A000100024807
:1004400008F092FE10BDC04600C00340A022094B38
:10045000D2051060536091608021074B4904D3603E
:1004600013690B42FCD110220449CB681A42FCD11B
:100470007047C04608C003401100080000C0034098
:10048000D02302221B06002801D15A6170479A61CD
:10049000FCE7C046D02308221B06002801D05A6181
:1004A00070479A61FCE7C04610B50400002002F0D6
:1004B00077FAD02301221B065A62002C01D05A6120
:1004C00010BD9A61FCE7C046F0B5C6460C0000B509
:1004D00000219046061C04F0B5FC00283FD10027FF
:1004E000002C27D00125AB005D19013C6D00002CCC
:1004F000F9D1301C04F0E0FC040004F0BBFC011C4A
:10050000301C04F056FC061C280004F0B3FC011C4F
:10051000301C04F068FC04F0CFFCC2178318534071
:10052000002F16D0220040461F4906F0D3F980BCA8
:10053000B846F0BD301C04F0BFFC040004F09AFC87
:10054000011C301C04F035FC04F0B6FCC217831803
:10055000534022004046154906F0BCF9E7E7301C3D
:1005600004F0E2FC02000B0006000F0003F0EAFFBB
:1005700002000B003000390003F0DBFF04F0C0F88C
:10058000061C002C01D00127ACE704F095FC040008
:1005900004F070FC011C301C04F00BFC04F08CFC1B
:1005A000C21783185340BDE7189200102092001024
:1005B000F0B55746DE464E4645469246E0B583B016
:1005C0001F000CAB00229B5E52460190002A25DDE5
:1005D000002F23DD5B00984600239B468BB2994693
:1005E0004F44D9469B46BFB24B465D000D9B5C46CF
:1005F0009C46019E65444E4436B221B201342A889D
:100600003000A4B200F038FE4544A742F5D10123E2
:100610009C46E1444B461AB29245E5DC03B0F0BC7F
:10062000BB46B246A946A046F0BDC046F8B50D4B44
:100630000027DF5F0C4B00269E5F002F10DD00259A
:10064000002E0DDD0024210001340022280024B2F8
:1006500000F012FEA642F6D101352DB2AF42F1D123
:10066000F8BDC046301000202E100020F0B55746CF
:100670004E464546DE46E0B591B00B931AAB1F8857
:100680001BAB894619781CAB1C788F4B0391002556
:100690005B5F0294834200DCAFE08C4B00255B5F24
:1006A0004B4500DCA9E08C464B0063445B001B1803
:1006B000002B00DCA1E04B46E500EB18002B00DC32
:1006C0009BE0AF2A00D9E3E091008A18804986B206
:1006D0005318741D0893A3B20A934B469BB204931C
:1006E0004B460F950B9D079609960C960D930E940D
:1006F000089B1B789B466B4624229B5E039A9C4674
:1007000005930823984600231C00624401920123AC
:100710005A46134200D177E0039BA2B2012B03D1CA
:10072000029B012B00D19DE00499029B8C465A4309
:10073000624412B291460199059A8A421BDA4B44EF
:100740001E00994517DA3B002F009A463500160027
:1007500006944C46210001343A00300024B200F0E7
:100760008BFDAC42F6DB0136019B36B29E42F0DBDC
:100770003D005746069C631C5CB25B465B089B468B
:100780004346013BDBB29846002BC0D1089B099C35
:1007900001330893039B0A9A9C466444A3B20993CD
:1007A000079B01339BB207939342A1D10D9B0C9EF3
:1007B00099460B9B0E9C0F9D9F421ED06346012BBA
:1007C00069D0039988468A004244B3181EB2B044E7
:1007D000ABB2464511DA4B441D0099450DDA4C4643
:1007E000210001343A00300024B200F045FDAC4253
:1007F000F6DB013636B24645F1DB11B0F0BCBB4644
:10080000B246A946A046F0BDAF42B4D0039BA2B207
:10081000012B02D1029B012B2FD00499029B8C4605
:100820005A4305990198624412B28142A3DA9E1894
:10083000B242A0DA2B00914635009A460E0006948B
:100840004C46210001343A00300024B200F014FD7F
:10085000AC42F6DB0136019B36B29E42F0DB5546D8
:10086000069C88E7049B9C466B46624411B21C20A0
:10087000185E2A0000F000FD7DE7049B9C466B4655
:10088000624411B21C20185E3A0000F0F5FC72E7D9
:100890000132D2B218E7029B012B04D026B2721C9F
:1008A0009046ABB297E76B461C241C5F4B464D4607
:1008B000DE1D290001353A0020002DB200F0DCFCDD
:1008C000B542F6DB99E7C046301000202E1000201C
:1008D000E8950010024B1880024B19807047C04603
:1008E00060BF002062BF0020024B1880024B1980BD
:1008F0007047C0462C10002064BF0020024B1880B7
:10090000024B18807047C0462A1000202810002093
:10091000F0B5DE464E4657464546E0B58BB0020080
:10092000324907A805F0D6FF07A808F0BFFB07ACBF
:100930002618002853D02E4B2E4D04932E4B98464C
:100940003DE00D2A38D00023E85E049B1B889C46BE
:1009500043461B889946294B9A460021595E6346B7
:100960005B0063445B001B180593254B0027DB5F8E
:100970009B46059B5B4508DD00232B804B46DB0037
:1009800059185346002009B219801E4B1B889A46FD
:100990004B46DBB202936346DBB201931A4B1B88D2
:1009A00000935346FFF762FE049B1B885A009B1876
:1009B0002A885B009B182B800134B4420FD0227828
:1009C0000A2ABED100220B4B01341A800A4B0B4A73
:1009D0001B881188DB005B181380B442EFD10BB089
:1009E000F0BCBB46B246A946A046F0BD2892001016
:1009F0002A10002060BF00202810002062BF0020C5
:100A0000301000202C10002064BF0020F0B5DE461E
:100A10004E4657464546E0B587B0040008F046FB11
:100A20002618002853D02D4B2D4D04932D4B98465E
:100A30003DE00D2A38D00023E85E049B1B889C46CD
:100A400043461B889946284B9A460021595E6346C7
:100A50005B0063445B001B180593244B0027DB5F9E
:100A60009B46059B5B4508DD00232B804B46DB0046
:100A700059185346002009B219801D4B1B889A460D
:100A80004B46DBB202936346DBB20193194B1B88E2
:100A900000935346FFF7EAFD049B1B885A009B18FE
:100AA0002A885B009B182B800134B4420FD0227837
:100AB0000A2ABED100220A4B01341A80094B0A4A85
:100AC0001B881188DB005B181380B442EFD107B09C
:100AD000F0BCBB46B246A946A046F0BD2A10002095
:100AE00060BF00202810002062BF002030100020CE
:100AF0002C10002064BF0020F8B5151804000F006A
:100B00001E00A84208DA200001343200390024B265
:100B100000F0B2FBAC42F6DBF8BDC046F8B5574674
:100B20004E464546DE46E0B51C006B4615001B8D63
:100B3000621A9946D317D2185A402B1A0F008C46C6
:100B4000D9175B184B40A2462E00834698469A421E
:100B500006DC2600BB462C00070090465546604642
:100B6000A74242DD5946891BCE1789197140884634
:100B7000391B8EB209B2B346CE0F7618012176101A
:100B80008A46A8423EDD414689B288469A4218DC30
:100B90004A462900200000F06FFB4346F31A9AB240
:100BA0001EB21B0403D555445A442DB216B201346B
:100BB00024B2BC42ECDDF0BCBB46B246A946A0461E
:100BC000F8BD4A462100280000F056FB4346F31AC0
:100BD0009AB21EB21B0403D555445A442DB216B224
:100BE000013424B2BC42ECDDE5E7E11B8EB209B270
:100BF000B346CE0F76187610A8420BDB2100050015
:100C00003C000F0009498A46414689B288469A420B
:100C1000D7DCBDE721003C000F0001218A46414698
:100C200089B2050088469A42CBDCB1E7FFFF00009D
:100C3000F0B583B06A462A230027002601ACD370A2
:100C4000E07001200D002780A670FFF719FC00203E
:100C5000FFF7E8FB6B460121D81CFFF7EDFB0020F6
:100C6000FFF70EFC0120FFF70BFC0120FFF7DAFB7A
:100C700004212000FFF7E0FB0020FFF701FC6A469B
:100C80002B230120D3702780A670E570FFF7F8FBB7
:100C90000020FFF7C7FB6B460121D81CFFF7CCFBF8
:100CA0000020FFF7EDFB0120FFF7EAFB0120FFF733
:100CB000B9FB04212000FFF7BFFB0020FFF7E0FB9A
:100CC0006A462C230120D370FFF7DAFB0020FFF7E0
:100CD000A9FB6B460121D81CFFF7AEFB0020FFF7F4
:100CE000CFFB03B0F0BDC04610B5012082B0FFF7C6
:100CF000DBFB0020FFF7CEFB0A20FFF761FB0120A2
:100D0000FFF7C8FB7820FFF75BFB6A460123012051
:100D1000D371FFF7B5FB0020FFF784FB6B46012181
:100D2000D81DFFF789FB0020FFF7AAFB9620FFF7ED
:100D300047FB6A4611230120D371FFF7A1FB002076
:100D4000FFF770FB6B460121D81DFFF775FB0020F4
:100D5000FFF796FBFA204000FFF732FB6A46B1230B
:100D60000120D371FFF78CFB0020FFF75BFB6B4684
:100D70000121D81DFFF760FB0020FFF781FB012058
:100D8000FFF77EFB0120FFF74DFBF74C032120000E
:100D9000FFF752FB0020FFF773FB6A46B2230120E6
:100DA000D371FFF76DFB0020FFF73CFB6B46012181
:100DB000D81DFFF741FB0020FFF762FB0120FFF782
:100DC0005FFB0120FFF72EFB03212000FFF734FB20
:100DD0000020FFF755FB6A46B3230120D371FFF7CC
:100DE0004FFB0020FFF71EFB6B460121D81DFFF7CC
:100DF00023FB0020FFF744FB0120FFF741FB01200C
:100E0000FFF710FB0621D948FFF716FB0020FFF77C
:100E100037FB6A46B4230120D371FFF731FB002072
:100E2000FFF700FB6B460121D81DFFF705FB0020F3
:100E3000FFF726FB0120FFF723FB0120FFF7F2FA63
:100E40000121CB48FFF7F8FA0020FFF719FB6A46AB
:100E5000C0230120D371FFF713FB0020FFF7E2FA54
:100E60006B460121D81DFFF7E7FA0020FFF708FBCA
:100E70000120FFF705FB0120FFF7D4FA0321BD484D
:100E8000FFF7DAFA0020FFF7FBFA6A46C1230120D8
:100E9000D371FFF7F5FA0020FFF7C4FA6B46012182
:100EA000D81DFFF7C9FA0020FFF7EAFA0120FFF783
:100EB000E7FA0120FFF7B6FA0121AF48FFF7BCFAC5
:100EC0000020FFF7DDFA6A46C2230120D371FFF745
:100ED000D7FA0020FFF7A6FA6B460121D81DFFF7CD
:100EE000ABFA0020FFF7CCFA0120FFF7C9FA012086
:100EF000FFF798FA0221A148FFF79EFA0020FFF7BA
:100F0000BFFA6A46C3230120D371FFF7B9FA002064
:100F1000FFF788FA6B460121D81DFFF78DFA0020F4
:100F2000FFF7AEFA0120FFF7ABFA0120FFF77AFADC
:100F300002219348FFF780FA0020FFF7A1FA6A46E2
:100F4000C4230120D371FFF79BFA0020FFF76AFA50
:100F50006B460121D81DFFF76FFA0020FFF790FACA
:100F60000120FFF78DFA0120FFF75CFA0221854886
:100F7000FFF762FA0020FFF783FA6A46C5230120D3
:100F8000D371FFF77DFA0020FFF74CFA6B46012181
:100F9000D81DFFF751FA0020FFF772FA0120FFF782
:100FA0006FFA0120FFF73EFA01217748FFF744FA74
:100FB0000020FFF765FA6A4620230120D371FFF76E
:100FC0005FFA0020FFF72EFA6B460121D81DFFF7CC
:100FD00033FA0020FFF754FA36246B460120DC7107
:100FE000FFF74EFA0020FFF71DFA6B460121D81DCE
:100FF000FFF722FA0020FFF743FA0120FFF740FA3B
:101000000120FFF70FFA01216048FFF715FA0020D1
:10101000FFF736FA6A463A230120D371FFF730FA18
:101020000020FFF7FFF96B460121D81DFFF704FAF6
:101030000020FFF725FA0120FFF722FA0120FFF731
:10104000F1F901215248FFF7F7F90020FFF718FAEC
:101050009F217F20FFF7ECFD6A46E0230120D3713A
:10106000FFF70EFA0020FFF7DDF96B460121D81DCE
:10107000FFF7E2F90020FFF703FA0120FFF700FA7B
:101080000120FFF7CFF910214248FFF7D5F90020E2
:10109000FFF7F6F96A46E1230120D371FFF7F0F973
:1010A0000020FFF7BFF96B460121D81DFFF7C4F9F7
:1010B0000020FFF7E5F90120FFF7E2F90120FFF733
:1010C000B1F910213448FFF7B7F90020FFF7D8F93C
:1010D0006A4613230120D371FFF7D2F90020FFF7EE
:1010E000A1F96B460121D81DFFF7A6F90020FFF7F3
:1010F000C7F90A20FFF764F96A4629230120D37152
:10110000FFF7BEF90020FFF78DF96B460121D81DCE
:10111000FFF792F90020FFF7B3F96420FFF750F9C9
:101120006B460120DC71FFF7ABF90020FFF77AF97D
:101130006B460121D81DFFF77FF90020FFF7A0F9CA
:101140000120FFF79DF90120FFF76CF901211348F9
:10115000FFF772F90020FFF793F97F219F20FFF737
:1011600067FD02B01CE0C046289B0010209B0010C9
:101170001F9B00101C9B00101A9B0010189B001056
:10118000149B0010109B00100E9B00100D9B001074
:101190000C9B0010FC9A0010EC9A0010E89A0010CA
:1011A00010BDC0469F2300B51B0683B06A4601935D
:1011B0002A230120D370FFF763F90020FFF732F9EB
:1011C0006B460121D81CFFF737F90020FFF758F9CB
:1011D0000120FFF755F90120FFF724F9042101A8A8
:1011E000FFF72AF90020FFF74BF9FE23DB056A46DB
:1011F00001932B230120D370FFF742F90020FFF762
:1012000011F96B460121D81CFFF716F90020FFF7F2
:1012100037F90120FFF734F90120FFF703F9042122
:1012200001A8FFF709F90020FFF72AF96A462C23E5
:101230000120D370FFF724F90020FFF7F3F86B4685
:101240000121D81CFFF7F8F80020FFF719F9012059
:10125000FFF716F90120FFF7E5F8A021054809027C
:10126000FFF7F4F80020FFF70BF90020FFF7A8F8CC
:1012700003B000BDF01A002030B5002811DB094B87
:1012800000241B5F83420CDD00290ADB064C00258D
:10129000645F8C4205DD4B43044C1B1852BA5B0063
:1012A0001A5330BD301000202E100020F01A0020FC
:1012B000A0220221054BD205D058014204D0D150C2
:1012C0000122034B1A7040BF7047C0461C04000047
:1012D0006CBF0020802270B592000021324803F0DC
:1012E000A1FE07F01BFE1F211A2001F017FB0022B0
:1012F00000211A2001F02CFB00211A2001F03CFBF8
:10130000E0222A4BD2011B6801201340284A1360B7
:10131000284B1A68284B5340284A1340284A136028
:1013200007F018FE0222274B0C201A60264901F014
:1013300053FC01210C2001F015FCFFF7D5FC00F057
:101340006FFC224B2248196803F039FD03F0E6FDDB
:10135000204C2060082002F013FC0500216848089A
:10136000401902F0ABFE0400602800D26024601E29
:1013700003F07BFDEC21890503F01EFD8721C905E3
:1013800003F031FD03F0CAFD084B2100186128006D
:1013900002F094FE03F069FD011C0F4803F00FFDFD
:1013A0000E4E306070BDC0468417002000C004405F
:1013B00000D0044008C00440090000010F00000FE5
:1013C00008D0044014240050B1120010381000203E
:1013D0000024744B2CBF00200024744928BF002037
:1013E0008022F8B5374952000B681342FCD08B6855
:1013F000134206D18021334B4900DA689A680A42C9
:10140000FBD00023304D314A2B70314B314C1A60E8
:10141000802252005C609A602F4A8721DA6008229D
:101420002E4BC9051A602E4B2E4E186803F0DBFCBC
:1014300003F074FD2C4BB76A9C466744C01902E068
:10144000B36A1B1A02D52B78002BF9D02B78082110
:101450005A425341254ADBB21370254B1960137869
:10146000002B1DD0A022234B0639D205D15080215C
:101470004904D36C0B42FCD18B211F4BC905186862
:1014800003F0B1FC1D4903F09AFC03F047FD8022F4
:101490000004030C92000343A21808C49442FCD138
:1014A0008022084952000B681342FCD08B6813421B
:1014B00006D18021034B4900DA689A680A42FBD0C2
:1014C000F8BDC04600C004406CBF00200CC0044002
:1014D00040000050841700202508120000E004405E
:1014E00028BF00200040054050C300006DBF002011
:1014F00000F0044044040000341000203333534013
:1015000010B5FFF76DFF084800F0EEF9074B1B78A8
:10151000002B05D101F0C0F90020FEF767FF10BDD8
:101520000120FEF763FFF5E78417002075BF002058
:1015300070B5154C2060082002F022FB05002168E0
:101540004808401902F0BAFD0400602800D2602467
:10155000601E03F08AFCEC21890503F02DFC872135
:10156000C90503F040FC03F0D9FC084B21001861C9
:10157000280002F0A3FD03F078FC011C044803F0EE
:101580001EFC044E306070BD2CBF002000C0044023
:101590000024744928BF002010B5FFF703FE322055
:1015A000FEF70EFFFA200121800002F041FBFEE76A
:1015B000732811D0532808D046280CD10422084B98
:1015C0001A70084B033A1A7005E00422044B1A7093
:1015D0000022044B1A7070470222014B1A70FAE77E
:1015E00072BF00204810002070B503F041F80D4A8A
:1015F0000D4B02F0CEFF00220C4B02F0CAFF0C4B49
:10160000040018680D0003F08FFC02000B0020009E
:10161000290002F08EFF02000B0002F093FF03F09E
:101620006FF870BD6666666666660A400000303F09
:101630003410002010B503F01BF8054A054B02F0EA
:10164000A8FF0022044B02F0A4FF03F059F810BDDC
:101650006666666666660A400000303FF0B557462B
:101660004E46DE464546E0B5002701268BB00024F5
:101670003DB221B2264200D1F5E028008A4A013469
:10168000FFF7FAFD602CF4D11037802FEFD100273F
:10169000012600243DB220B2264200D1DDE029001F
:1016A000814A0134FFF7E8FD802CF4D11037602F18
:1016B000EFD17E4B1F687E4B1E689B46300002F0C8
:1016C000D7FF7C4A7C4B02F064FF0D00040003F05E
:1016D00017F87A4B03901860994680231B06E91887
:1016E000200003F00DF8764B3D049A461860FF2366
:1016F0002D0C5B1B049005937F2B01DD7F2205924F
:10170000704A1100089200220A706F4909910A700C
:10171000002B00DCC0E06D4B6D00ED186C4B00241D
:1017200006936C4BA846079353463000DA46CB46E7
:10173000994603F09FFB069B051C186803F0F4FB19
:10174000434606000F00188802F092FF594A624B88
:1017500002F01FFF0022614B02F01BFF32003B0032
:1017600002F0E7FE02000B0002F0ECFE02F0C8FF00
:10177000291C03F038FB43460290588802F078FF9A
:101780004C4A554B02F005FF0022544B02F001FF7A
:1017900032003B0002F0CDFE02000B0002F0D2FE50
:1017A00002F0AEFF291C03F01EFB0399051C03F099
:1017B00057FB002801D05B461D600499281C03F0EC
:1017C00041FB002801D04B461D608321079BC905C2
:1017D0001E68029803F007FB311C03F0F0FA011CAD
:1017E0003F4803F0E6FA03F067FB832107B2C9051F
:1017F000281C03F0F8FA311C03F0E1FA011C384808
:1018000003F0D7FA03F058FB03B25F2F31DD01215B
:10181000099A5F2711705F2B1DDC002B03DA012270
:10182000089B1A7000232F49651C20B200912AB230
:101830003900FFF773F902239C46059B2C00E04416
:10184000AB4229DD534618685B461B6803934B4641
:101850001B6804936DE75F23E5E700222900FFF78B
:101860000BFD013417E700222800FFF705FD0134C6
:10187000FFE65F2B09DD0123099A1370002FEADAD6
:10188000089A002713705E33CDE7002FC5DA0121D7
:10189000089A00271170C0E70BB0F0BCBB46B246F7
:1018A000A946A046F0BDC046FFFF000040BF002093
:1018B000441000206666666666660AC0F8BE0020B0
:1018C00000BF002074BF00206BBF002084170020E1
:1018D000341000204010002066660A400000303FAF
:1018E00000003C42E0FF0000F0B5DE464E465746A1
:1018F0004546E0B5714B83B00600186803F014FB51
:101900006F4B040018680D0002F0B2FE02000B00DD
:1019100002F018FE02000B002000290002F01BFE5E
:10192000684B040018680D0003F0FEFA02000B007B
:101930002000290002F006FE0022634B02F029FE7F
:10194000624A634B02F007FE02F0AAFE614B624955
:10195000994600234A460B70136000235F4D070031
:101960002B605F4B32881B78012B3DD02037012440
:10197000974237DA3200002600238C46AB4631000E
:1019800005003E0027009A4698460133508885425C
:1019900013DB1488A54210DA002F0ED04046002831
:1019A0003ED1591C02327F2B00D174E001930B0011
:1019B0000121002788468A4650880124864200DBA0
:1019C0000024013327430232802BDFD10E1E6146F3
:1019D00002D04B46019A1A605346002B3BD0434637
:1019E0000B7038E00024C5E7203F0124974200DC5B
:1019F00000243200002600238C46AB46310005004F
:101A00003E0027009A46984601335088854235DCCF
:101A10001488AC4232DA002F30D04046002821D062
:101A20000E005D4661467F2B3CD0002E30D04A46EA
:101A30000198106002220A70019A981A03F01AFAAB
:101A4000284B196803F0CFF9274B011C1860274871
:101A500003F0B5F9286003B0F0BCBB46B246A94616
:101A6000A046F0BD5C1C02327F2B14D001210193F3
:101A7000230001248846A24600275088012486427C
:101A800000DC0024013327430232802BBDD19DE7C7
:101A900000220192CEE77F234A46614613607E3BD7
:101AA0000B70D8E7002E04D04B46019A1A607F23B2
:101AB000C0E7002301937F33BCE7C04644BF00204A
:101AC00044100020341000200000B04066666666B6
:101AD00066660A4040BF002075BF0020FCBE0020A3
:101AE0003C10002028BF002034BF0020002474498F
:101AF00010B584B0FEF79AFD0120FEF7FFFE00212D
:101B00000020FEF7E7FE3D490020FEF7EDFE3C4CCD
:101B10002000FEF77BFF00213848FEF7E5FE39483C
:101B2000FEF774FFFFF73EFB1020FEF755FC002880
:101B3000FAD09620FEF744FCFFF752FCFEF776FD44
:101B40000120FEF7DBFE00210020FEF7C3FE2B493B
:101B50000020FEF7C9FE2000FEF758FF27480021AD
:101B6000FEF7C2FE8022284B9200981800221988A6
:101B7000023352188342FAD1120A90B2FFF75AFD8B
:101B8000224B6A4602211860FEF79EFC2048FEF7B1
:101B90003DFF6846FEF73AFF1E4C2000FEF736FF79
:101BA0000020FFF721FD6A460221FEF78DFC1A484E
:101BB000FEF72CFF6846FEF729FF2000FEF726FF00
:101BC00080204001FFF710FD6A460221FEF77CFCF1
:101BD0001248FEF71BFF6846FEF718FF2000FEF7CD
:101BE00015FFFFF7DFFA1020FEF7F6FB0028FAD109
:101BF0009630FEF7E5FB04B010BDC046FFFF0000C5
:101C00002C92001040920010841700203410002005
:101C10006C92001080920010849200109892001034
:101C200000B583B0FEF702FD0A4BA0220193A0236A
:101C3000002100930020203BFEF7BAFC0120FEF7B4
:101C40005DFEFFF7AFFAFA20C000FEF7B9FB03B064
:101C500000BDC046549B001030B5012085B0FEF792
:101C60004DFE5E4D6A4601212868FEF72DFC0020DE
:101C70005B49FEF739FE01218020FEF72BFE594813
:101C8000FEF7C4FE00215648FEF72EFE0A218020F2
:101C9000FEF720FE6846FEF7B9FE534C6A46206800
:101CA0000121FEF711FC00204D49FEF71DFE152114
:101CB0008020FEF70FFE4D48FEF7A8FE00214848A1
:101CC000FEF712FE1E218020FEF704FE6846FEF796
:101CD0009DFE00204249FEF707FE29218020FEF7E5
:101CE000F9FD4348FEF792FE00213D48FEF7FCFD5A
:101CF00033218020FEF7EEFD2968206803F059F8B3
:101D00006A460121FEF7E0FB6846FEF77FFE394890
:101D1000FEF77CFE00203249FEF7E6FD3D218020E3
:101D2000FEF7D8FD3448FEF771FE00212C48FEF77F
:101D3000DBFD47218020FEF7CDFD304B30491C688C
:101D4000201C03F085F800282BD02E49201C03F01E
:101D50007FF800281BD12A49201C03F030F86A467E
:101D60000121FEF7B1FB6846FEF750FE51218020AD
:101D7000FEF7B0FD2448FEF749FE244B1B78002BEC
:101D80001FD100211648FEF7AFFD05B030BD201C65
:101D900003F092F8FA21890002F068F9FEF7B8FD25
:101DA000E4E7201C03F088F8FEF7B2FD5121802003
:101DB000FEF790FD1648FEF729FE144B1B78002B0A
:101DC000DFD0FC200021C000FEF78EFD5B218020CB
:101DD000FEF780FD0F48FEF719FED2E700BF002096
:101DE000FFFF0000AC920010F8BE0020B49200107B
:101DF000BC920010C4920010C8920010FCBE0020DB
:101E000000007A440050C347D092001075BF0020F4
:101E1000D4920010D8920010F0B5D6464F464646F0
:101E2000C0B5012084B0FEF769FDD74FD74E3B788F
:101E300032780021134300D14CE1F8200002FEF774
:101E400053FD69210020FEF745FDD148FEF7DEFD78
:101E50000021D048FEF748FD69211E20FEF73AFD1B
:101E6000CD48FEF7D3FD69213C20FEF733FDCB487A
:101E7000FEF7CCFD69215F20FEF72CFDC848FEF778
:101E8000C5FD69218220FEF725FDC64DC64928689B
:101E900002F0D8FF002800D18FE0C448FEF7B6FD5D
:101EA000C34C2378002B09D13B783278B9491343CE
:101EB00000D139E1F8200002FEF716FDBD4B6A465D
:101EC000186801219846FEF7FFFA73210020FEF7FB
:101ED00001FD6846FEF79AFDB748FEF797FD002121
:101EE000AC48FEF701FD2378012B00D1F6E0B34F9B
:101EF0006A4601213868FEF7E7FA73211E20FEF7D3
:101F0000E9FC6846FEF782FD0021A248FEF7ECFCE2
:101F10002378022B00D1FDE073213C20FEF7DAFC90
:101F2000A74B9A461B78012B00D1B6E0A548FEF7D7
:101F30006DFD00219748FEF7D7FC2378032B00D1D5
:101F4000B6E073215F20FEF7C5FC9F4B18689946E9
:101F5000FEF7DEFC9D48FEF759FD00218D48FEF797
:101F6000C3FC2378042B00D1D9E073218220FEF733
:101F7000B1FC2E688C49301C02F064FF002800D0B0
:101F80009BE09349301C02F05DFF002819D1301C02
:101F900002F092FFFA21890002F068F8FEF7B8FC1F
:101FA0000F20FEF719FA00281BD02378042B00D944
:101FB0006FE0884A9B00D3589F468748FEF726FD6E
:101FC0006EE78648FEF722FD286802F075FF64215F
:101FD00002F04CF8FEF79CFC0F20FEF7FDF90028FC
:101FE000E3D11120FEF7F8F9002825D02378042B3F
:101FF0001FD87B4A9B00D3589F462E687449301CDB
:1020000002F026FF002800D012E16749301C02F0E0
:102010001FFF002800D118E16349301C02F0CCFEFC
:10202000011C29606F4802F0CAFE02F077FFFFF73B
:102030007FFA9620FEF7C4F91020FEF7CDF90028AC
:1020400041D12378042B01D90023237004B0E0BCD4
:10205000BA46B146A846F0BD2E685D49301C02F074
:10206000FFFE002800D0E9E04F49301C02F0F8FEE6
:10207000002800D1EFE0301C4B4902F09AFE061C0C
:102080002860311C574802F09AFE02F047FFFFF724
:102090004FFA9620FEF794F9A3E75348FEF7B6FCF3
:1020A00000213C48FEF720FC2378032B00D048E7B2
:1020B00000203849FEF718FC43E7301C02F0FCFE14
:1020C000FEF726FC6CE72378962001332370FEF799
:1020D00077F9B6E72F48FEF707FCB2E600202D4956
:1020E000FEF702FC8321354FC905386802F07BFEFC
:1020F0004346196802F063FE011C3C4802F059FE99
:1021000002F0DAFEF82301B2802200201B02FEF763
:10211000F3FCEDE600201F49FEF7E6FBFCE600209D
:102120001C49FEF7E1FB20E70020FEF7DDFBC5E6DA
:1021300001234A461360ACE7002352461370A8E718
:10214000386802F0F1FE2A4A2A4B02F0F2F902F056
:10215000D7FA38609DE74346FC211E688905301C8C
:1021600002F07EFE002894D0FC21301C890502F08C
:1021700020FE434618608CE70A234A46136058E75E
:1021800001235246137054E774BF00206BBF002038
:10219000E0920010FFFF0000D8920010E8920010BB
:1021A000F0920010381000200000C842F892001091
:1021B00073BF002040100020C492001044BF0020D4
:1021C0003C100020109300104410002018930010C1
:1021D00000007A442C9B0010009300101C93001008
:1021E000409B00100024744B0893001000003C42F8
:1021F0009A9999999999B93F386802F095FE1D4AC4
:102200001D4B02F09FF902F07BFA386011E743465C
:102210001D681A49281C02F015FE002800D108E7A5
:10222000FC21281C890502F0C7FD4346186000E721
:102230001349301C02F0C0FD011CF2E6301C1049AD
:1022400002F0B7FD061C28601BE70E49301C02F0A7
:10225000B3FD011CE5E60B49301C02F001FE00282D
:1022600000D10EE7301C074902F0A3FD061C2860D0
:1022700007E7C0469A9999999999B93F000010418A
:1022800000007A4400002041F0B5DE46574645463E
:102290004E46E0B5050095B00120FEF72FFB052165
:1022A0000220FEF717FBB3490020FEF71DFBB248E2
:1022B000FEF7ACFBB148FEF7A9FBFEF773FF0AABD4
:1022C0009A465446AE4B07CB07C4022D00D177E0A7
:1022D00002AB9C463520AB496044022202F0A8FEC6
:1022E0005246A94B02AF23CB23C203CB03C21B78B8
:1022F00002211370A54B3A0018689946FEF7E4F8DE
:102300003A00A349504604F0E5FA8022A149520060
:10231000504604F0DFFAA04BA0491A68504604F07A
:10232000D9FA0520FEF74CF8BC462B209C4B9D4962
:102330001A68604422609A88A2809B790222A37165
:1023400002F076FE52460024974B984E03CB03C210
:10235000198811809B789370954B9B4606AB9846E5
:10236000944B01935B46186802F084FD051C30888D
:10237000FFF73AF9011C281C02F035FD3A00032151
:10238000FEF7A2F8200002F075FD4B46196802F036
:102390002AFD42460321FEF797F83B00424650468D
:1023A000019904F097FA8023013402365B009C42C5
:1023B000D8D115B0F0BCBB46B246A946A046F0BD88
:1023C000504606F073FE01005046FEF719F85246DB
:1023D000794B02AF23CB23C21A68504622609A88F9
:1023E000A2809B79A37106F061FE01005046FEF7C2
:1023F00007F85246714B23CB23C2504606F056FED7
:10240000554601005046FDF7FBFF6D4B07CB07C556
:10241000250006CB06C51A8850462A809B78AB70EB
:1024200006F044FE01005046FDF7EAFF5246564BC7
:1024300043CB43C2220003CB03C21B7850462B7010
:1024400006F034FE01005046FDF7DAFF4F4B3A002C
:10245000186802219946FEF737F83A004C49504671
:1024600004F038FA504606F021FE01005046FDF710
:10247000C7FF802247495200504604F02BFA5046CD
:1024800006F014FE01005046FDF7BAFF424B4349E7
:102490001A68504604F01EFA504606F007FE010086
:1024A0005046FDF7ADFF0520FDF78AFF5246454B2C
:1024B00023CB23C21A68504622609A88A2809B7957
:1024C000A37106F0F3FD01005046FDF799FF524657
:1024D0003D4B23CB23C21B785046237006F0E6FD0C
:1024E00001005046FDF78CFF52462F4B002403CBD2
:1024F00003C21988504611809B78937006F0D6FD70
:1025000001005046FDF77CFF294B284E9B4606AB49
:102510009846284B01935B46186802F0ABFC051CFB
:102520003088FFF761F8011C281C02F05CFC3A00BF
:102530000321FDF7C9FF200002F09CFC4B461968FF
:1025400002F051FC42460321FDF7BEFF3B0042462C
:102550000199504604F0BEF9504606F0A7FD01006F
:102560005046FDF74DFF8023013402365B009C424C
:10257000D1D11EE7FFFF0000209300103093001020
:102580003C9300105D9300106093001028BF002062
:10259000789300109493001040BF0020A89300107F
:1025A000C4930010D7930010DC9300108417002010
:1025B0004410002008940010E8930010FC930010D1
:1025C00048930010B8930010CC930010F0B5CE469D
:1025D000474680B504008FB00120FEF78FF9052132
:1025E0000220FEF777F99E490020FEF77DF99D480D
:1025F000FEF70CFA04AD9C48FEF708FAFEF7D2FD90
:102600002A009A4B43CB43C21B781370022C00D193
:102610006DE0974B6A4618680221FDF755FF954B10
:102620006A4619002800994604F054F9924B6C460A
:1026300098461B78002B3CD18022904E2800310018
:10264000520004F047F943461B78002B3BD0002290
:102650003100280004F03EF9894B2200186804215B
:10266000FDF732FF22004946280004F033F9854B7C
:1026700031001A68280004F02DF90120FDF7A0FEB2
:1026800043461B78002B25D07F4B002498467F4F74
:1026900042463B683100E3185B002800D25A0134FF
:1026A00004F018F9802CF3D10FB0C0BCB946B04685
:1026B000F0BD724E80223100280004F00BF9434631
:1026C0001B78002BC3D1714F310028003A6804F009
:1026D00001F9C1E780236C4C9B00E7182288310088
:1026E0002800023404F0F6F8BC42F7D1DCE72800F9
:1026F00006F0DCFC01002800FDF782FE5C4B6A4618
:1027000018680221FDF7E0FE5A4B6A4619002800BE
:10271000994604F0DFF8280006F0C8FC0100280004
:10272000FDF76EFE544B6C4698461B78002B75D116
:102730008022524E28003100520004F0CBF82800CD
:1027400006F0B4FC01002800FDF75AFE43461B7852
:10275000002B00D17DE000223100280004F0BAF8FF
:10276000280006F0A3FC01002800FDF749FE444BB9
:10277000220018680421FDF7A7FE22004946280020
:1027800004F0A8F8280006F091FC01002800FDF7ED
:1027900037FE3C4B31001A68280004F09BF82800F3
:1027A00006F084FC01002800FDF72AFE0120FDF759
:1027B00007FE43461B78002B37D0334B0024984646
:1027C000324F42463B683100E3185B00D25A280082
:1027D00004F080F8280006F069FC013401002800AC
:1027E000FDF70EFE802CECD12A00294B13CB13C22F
:1027F00003CB03C2280006F059FC01002800FDF7B6
:10280000FFFD244B28001A882A809B78AB7006F0C5
:102810004DFC01002800FDF7F3FD45E7174E80222F
:102820003100280004F056F889E78023164C9B00FD
:10283000E71822883100280004F04CF8280006F040
:1028400035FC023401002800FDF7DAFDBC42F0D16E
:10285000CAE70E4F310028003A6804F03BF87FE7E2
:10286000FFFF00002093001030930010149400101C
:1028700028BF002024940010481000202C94001041
:1028800034100020441000208417002040BF002096
:1028900034940010E493001010B5FDF7C7FE0F202C
:1028A000FDF79AFD002825D11A4C2378002B1CD166
:1028B000FEF7D4FEFFF7D0F9FFF7AEFA164C2378F7
:1028C000002B08D023782078022B07D8C0B2FFF75E
:1028D000DBFC00232370FEF765FC10BD0238C0B29C
:1028E000FFF774FE00232370F5E7FFF701F90023DB
:1028F0002370DDE71120FDF76FFD064C0028D4D0D2
:10290000012310202370FDF767FD0028CDD0FEF7CE
:1029100043FECAE769BF002072BF0020094A830056
:102920009A1810B514684022544080322240064C58
:10293000C000A44663441A60044B9C466044416056
:1029400010BDC04604C0014004D001400040014019
:10295000074B8000C3181B68C90092000A435A4005
:102960000C231340034A9446604403607047C046FA
:1029700004C0014004D001408000002905D0064B6E
:102980009C464023604403607047044B9C464023B0
:1029900060440360F8E7C04604E0014004F00140F1
:1029A0000123D0228340120693629361094A830077
:1029B0009A1811684022514080320A400649C000EE
:1029C0008C4663441A60054B9C4605236044436073
:1029D0007047C04604C0014004D00140004001409F
:1029E0008023DB051868000F7047C0460FB400B5A0
:1029F000084883B004F0FAF8049B002B07D005A91F
:102A00001800019103F07CFF034804F0EFF8012067
:102A100003F08EFF489400102094001070B5EFF37F
:102A2000108C72B60D4D2B68002BFCD0BFF35F8F5E
:102A30000724CB08C618C05C01230C40A3401C002F
:102A40000440034207D118433070BFF35F8F2C60FE
:102A50008CF3108870BD1000FFF7C8FF2C0100D068
:102A6000F8B54746CE46884680B5EFF3108C72B66F
:102A70001C4D2C68002CFCD0BFF35F8F9A4222D8EB
:102A800007210126894602E00132934218D34D46C0
:102A900037001540AF40D4080119045D2742F3D137
:102AA00010003C430C70BFF35F8F00220D4B1A6087
:102AB0008CF3108800280EDBC0BCB946B046F8BDC8
:102AC00001204042EFE7BFF35F8F00232B608CF3C0
:102AD0001088012040424346002BEDD00898FFF7B4
:102AE00085FFC0462C0100D0044A1078431CDBB29D
:102AF000172B00D9102313707047C04649100020CF
:102B000010B5064B064C82B00100009318221F231B
:102B10002000FFF7A5FF02B010BDC046589400107A
:102B20008C1A00200021044B044ABFF35F8F02C3BC
:102B30009342FAD17047C046000100D0800100D016
:102B4000054B064A1360064A136053609360D360D6
:102B500013615361936170478080808000E400E0DE
:102B600004E400E01F2318401E3B8340002905D0E9
:102B7000C021044A49005350136070478022014924
:102B80008B50FAE700E100E001228240034B1B6812
:102B900013405A1E9341D8B27047C04600E100E08E
:102BA000012380228340024952008B507047C04667
:102BB00000E100E0064B10309B688000C358054AD6
:102BC00000209B1A47229A424041C0B27047C0463B
:102BD00000ED00E04C10002010B5EFF3108C72B641
:102BE0000F4A1368002BFCD0BFF35F8F0D4B1030E2
:102BF0009B6880001B580C4A934201D099420CD12B
:102C0000084B9B681950BFF35F8FBFF35F8F0022A3
:102C1000034B1A608CF3108810BD01F0FDF8C0461C
:102C2000240100D000ED00E0C1010010F0B55746CE
:102C30004E46DE464546E0B58A4685B00600EFF3CF
:102C4000108972B663490B68002BFCD0BFF35F8F0D
:102C50000021614B59568C46002900DAB7E0490043
:102C60000D005E4C6544AD0067190291B9791036CC
:102C700019705B4BB1009B6801915B58191B472988
:102C800035D8012118008843C679964200D875E0EE
:102C90009B46029B019E9846039507E04D006D18E8
:102CA000AD006519EB7993424ED9280006214156B3
:102CB0000029F3DA45465B4601960295061D494D0B
:102CC0000396039E043FBF1B3F05474E7F0D3743CE
:102CD0006646878086710298604480002418E271FD
:102CE00052464248A5802060A171A26018E0404988
:102CF0008B4200D06BE03F4B3B4963533E4B023568
:102D0000043B65195B1B1B055B0D0B437B803B4B39
:102D1000FA71BB80FF23BB715346BB6001233B4369
:102D20002F4A019992685350BFF35F8FBFF35F8FB3
:102D30000022284B1A6089F3108805B0F0BCBB460E
:102D4000B246A946A046F0BD019646460296868840
:102D50005B467605B346061D039D03965E46361513
:102D6000B346061DB046C3445E4604356519751B5F
:102D7000E0262D056D0D36023543A2E7204BFA7192
:102D80009C46030066461B1B5B415E43360DB44602
:102D9000AE1CB046A0444646164B6353164B043552
:102DA000043B9B1B1B05104E5B0D33437B8063195B
:102DB000C31A043B1B055B0D3343BB806346BB71E9
:102DC0005346BB60094B03603B000B43A8E701F08F
:102DD00023F8C046240100D06EBF00204C10002014
:102DE00000ED00E001BD000000E0FFFF014880476A
:102DF000C101001000A1FFFF9410002001BDFFFFE2
:102E0000AAAA000070B501240443EFF30581EFF393
:102E1000108C72B6274A1368002BFCD0BFF35F8F6B
:102E2000254A0500254BAD1A6D416B431B0D244D02
:102E30008900AE685BB27658A64224D0062151566E
:102E4000994224D01221515699422AD01E2151561E
:102E5000994228D02A215156994226D036215156DE
:102E6000994224D0422151560524994210D0154A46
:102E7000117813708171BFF35F8F00220D4B1A60C0
:102E80008CF3108870BDAA680F4C5450EFE70024F3
:102E90006100091989005218FF2191710B49918035
:102EA000E5E70124F4E70224F2E70324F0E7042431
:102EB000EEE7C046240100D04C100020AAAA000072
:102EC00000ED00E06EBF0020C101001001BDFFFF5A
:102ED00010B5084B084C82B0010000930022052376
:102EE0002000FFF7BDFD002801DB1F23181A02B0E8
:102EF00010BDC0467494001076BF0020024B9C4663
:102F000061448900016070474000003470B5114C85
:102F1000114DAC420FD2FF262368002B0CD0FFF7D7
:102F2000E3FD01002000FFF7E9FFA680BFF35F8FFC
:102F30000834AC42F0D370BDFFF7D6FD010020008D
:102F4000FFF7DCFF2671BFF35F8F0834AC42E3D399
:102F5000F1E7C046281100203011002010B5040010
:102F6000FFF7C2FD01002000FFF7C8FFFF23237118
:102F7000BFF35F8F10BDC04610B504000120FFF7FE
:102F8000BFFD034BC3189B002360BFF35F8F10BDD1
:102F900040000034034B9C46614489000160BFF34C
:102FA0005F8F70474000003440BF00200021704711
:102FB000F0B5DE4657464E464546E0B589B0EFF3DC
:102FC000058303221A40B04B91005C5801239340C3
:102FD000994605924A46AD4B01911A6008239C46DA
:102FE000A444634604934B46A94843630823E55E23
:102FF000002D00DBAFE0A3881BB2002B00DA25E137
:103000002369EFF3108272B619680029FCD0BFF370
:103010005F8F0123A5885B42A3802DB22369BFF394
:103020005F8F0021196082F31088002D28DB049A3D
:103030002300904667696E007619F600BE19B268E3
:103040004146944608241A5F9B46F068002A08DA35
:103050000FE0834200D179E00023E25E2100002AE4
:1030600006DB5400A418E4003C19E3688342F0DD59
:103070005B460D800021755E3280002DDBDA1C007E
:103080000823E15E002900DAE0E081484B00844635
:1030900062695B180199DB00D3186144826A9F68FA
:1030A000DE680B69BD1A9B1A9D4219D30123026A7F
:1030B000059883401A4213D0A379002B14D1744889
:1030C00000F020FB8E4203DC8DD1874200D88AE7D6
:1030D00040BF09B0F0BCBB46B246A946A046F0BD11
:1030E0000F61A379002BEAD00023A3710823E25ECD
:1030F0000499531CE3D00020B846B34602E02900EF
:10310000531C20D0530067699B18DB00FD18160084
:10311000FA5E6B881BB2002BF1DA0A802369EFF3A9
:10312000108A72B61F003B68002BFCD0BFF35F8F84
:1031300063882B8023696680BFF35F8F18608AF3F2
:103140001088531CDED147465E46B8E7A368634546
:1031500000D881E78CE762696B0092465B19DB005F
:103160009A4453469E68DF6800F0CCFA8F4236DC02
:103170003BD0534652461B6952699346022B3DD0C1
:1031800052460821605E5288000410435946984711
:10319000029003910299039A0B00100013433DD053
:1031A00013000A00B61A9F41002806DB384800F0D9
:1031B000A9FA029E039F36184F4153469E60DF6076
:1031C00000229A5E002A0ADB530099186069C90040
:1031D000411806938B68C9689B46B9425ADDA3889B
:1031E0001BB2002B00DA4BE70AE78642F7D85346BA
:1031F00052461B6952699346022BC1D110001369D4
:10320000984700280AD05B461A685B6802920393CD
:103210000299039A0B0010001343C1D153461B8837
:1032200022692381EFF3108372B611680029FCD064
:10323000BFF35F8F514662880A8022696580BFF3C1
:103240005F8F0021116083F31088C8E7104C2000C5
:1032500000F058FA80220023A44612068018594133
:10326000019AA56A62441369461B5B1B9E4201D208
:1032700010612DE70123059D246AAB401C4200D05C
:1032800026E7106124E7C04610BF00203C700540CF
:1032900000400540B94201D1B342A0D808239C4662
:1032A000A44463460793A846A44622815D46069B34
:1032B000079C05E053009918C90041188D68C9683A
:1032C0009B18DB00C318B94205DC0DD01C0000239D
:1032D000E25E002AEEDA230064469C4653464546E9
:1032E0001A8063461D807AE7B542EFD9F3E7C046FE
:1032F00070B52C4C2569002D00D070BD2A4E0321DD
:10330000300000F0F5F9E660FFF7EEFB274B0322F3
:103310009C46D02322701B061B6801216370244B3E
:103320006044A3600F2380002061022063806369F2
:103330004942A18019800231198647311D835852B4
:1033400018315A5275325C399952183201319952FA
:103350001832013199521832013199520835183218
:103360009D52023118329952183201319952183255
:103370000131995218320131995218320131995262
:103380001832013199520B4B0B49DC600130356228
:10339000FFF722FC01210320FFF7E4FB074B1D6030
:1033A000ABE7C046AC1000200040054040000034B0
:1033B000FFFF100010BF0020B12F00103860054043
:1033C00000487047AC100020F8B51F0008AB1B7810
:1033D00004001600002B08D100F09CF932003B00DD
:1033E000121A8B41002B00DA52E02269EFF31080B1
:1033F00072B61368002BFCD0BFF35F8F0223E15E2F
:1034000063694A005218D2009B182269002936DBF2
:103410001D886580BFF35F8F0025156080F31088DD
:10342000069A9E60DF601A61079A5A615A880132D3
:103430005204520C101C002A1FD082B2588008047B
:1034400010432669EFF3108772B63268002AFCD069
:10345000BFF35F8FA2881A80A1802369BFF35F8FBB
:1034600000221A6087F310880A4923788C460132BB
:103470009A40E36863441A60F8BD0120DDE7BFF3BA
:103480005F8F0023136080F3108801204042F3E730
:103490000020F1E73C20000070B501000469EFF363
:1034A000108C72B620680028FCD0BFF35F8F02201A
:1034B0000D5E4C6968004019C00024180869002D91
:1034C00036DB26884E80BFF35F8F002606608CF3C4
:1034D0001088E36063880498013320615B040598D9
:1034E0005B0CA26060611A1C002B1FD093B22804F1
:1034F000628018430A69EFF3108C72B61368002BD0
:10350000FCD0BFF35F8F8B8823808D800B69BFF366
:103510005F8F00221A608CF310880B7801329A407A
:10352000CB6808498C4663441A6070BD0122DDE710
:10353000BFF35F8F002303608CF3108801204042AB
:10354000F3E7C0463C20000010B543890A149342BB
:103550001ADD53009B184269DB00D3180469EFF3AE
:10356000108C72B62268002AFCD0BFF35F8F5A8895
:10357000090494B2090C8A4208D00369BFF35F8F33
:1035800000221A608CF31088002010BD80221202E5
:1035900014435C80012302698371BFF35F8F0021B4
:1035A00011608CF31088044902788C469340C268FD
:1035B000012062441360E8E73C2000004078704737
:1035C000F0B557464E46DE464546E0B506000F00CC
:1035D00085B0EFF3058399468A46002B12D0414906
:1035E00000204B6ABB4206D38A6ADB1B591E8B4103
:1035F000B2424041184305B0F0BCBB46B246A946B2
:10360000A046F0BD384B9B46DB6898465B461B786E
:103610004046039300F076F84246039B04000433CF
:103620009B009B580D001B1A39003000001BA9415C
:1036300089451ADC17D02B4B5A6A524505D39B6A31
:103640000120B342D7D25245D5D120BF254B586A6D
:1036500050453BD3C01B9A6A431E98410023B24297
:103660005B411843C7E78342E5D900F053F83200C5
:103670003B00121A8B41002B24DB002301931B4BD0
:103680003200009358463B00FFF706FF011E19DD8C
:10369000144B5A6A524504D39B6AB34202D2524534
:1036A00000D120BF5846FFF74FFF0E4A0020536A53
:1036B0005345A0D3926ADB1B591E8B41B242404155
:1036C000184398E7074A536A534501D2002092E70E
:1036D0000020926ADB1BB24240415A1E93411843BC
:1036E00089E7C04600400540AC100020A92F00101B
:1036F00010B5024A0248FFF791F910BD90940010EE
:10370000901A00200300416A0A00986A596A8A42A6
:10371000FAD17047034B596A0A00986A596A914274
:10372000FAD170470040054070B5002806DB1C4AFE
:10373000916A936A5B1A9842FBD870BD0400002519
:10374000174A536A1900966A536A8B42FAD13000BD
:10375000190024184D41AB4218D9114B5B6A1C006B
:103760005A1C0AD0012301246442E5175B420C492C
:103770004A6A9A42FCD39A42DFD1094A02E0516A6E
:103780009942DAD1916AA142F9D3D6E7AB4201D18D
:10379000A642E2D8024A2B00526A9542E7D8EAE7ED
:1037A0000040054070B504000D00174A536A190027
:1037B000966A536A8B42FAD13000190024184D41A1
:1037C000AB4216D813D0104B2A005B6A9D4203D936
:1037D0000D494B6A9342FCD3934207D10A4A02E057
:1037E000516A994202D1916AA142F9D370BDA642B1
:1037F000E9D9054B5B6A1C005A1CEFD00122012459
:103800006442E5175242E3E700400540F8B5040082
:1038100006200D0000F0B4F9002844D0374B384999
:10382000E3185A1E93418022120494465B429B0D7A
:10383000344A9B0563441360334A136018000A68D6
:103840009043FBD12D4B314AE31859424B41802123
:103850005B0049000620995200F092F92900C0004F
:1038600000F02CFC0130C3091ED140270122626206
:10387000A362266BF30722D4E36A254B0620E518E2
:1038800000232B60266300F07BF93900800000F0F4
:1038900015FC7023E26A5A400E3313402B601D4B17
:1038A00023630323A364F8BD1B4A93421ED900235C
:1038B0001A4A1B4F6262A362266BF307DCD5194BD1
:1038C000144AE3181A60656AA36A0620AD01ED1870
:1038D00000F056F9144900F0F1FBAD020100280098
:1038E00000F0ECFB0021FFF75DFFC5E74006800E0E
:1038F0009F011A003F180300B9E7C0460080FCBFD3
:1039000008C0004000E0004000F0004048BF002038
:103910002C10000001030000FEFF0000FFFF00006C
:10392000C0FF3F00303000004E0E00000539013A64
:10393000F8B5D2004C0105001443002B06D0013B22
:103940005A4253419B00234302241C432E6BF3072E
:1039500008D46E23EA6A624013400E4AAA18136024
:103960002E63F8BD0C4B0D4AEB181A606F6AAB6AF8
:103970000620BF01FF1800F003F9094900F09EFB83
:10398000BF020100380000F099FB0021FFF70AFF99
:10399000DFE7C0462C1000003030000001030000BB
:1039A0004E0E0000F8B5DE464E4657464546E0B599
:1039B0008B4605000A991800160000F07FFB0A9B51
:1039C0006C001F02324B64199C46A4006444636877
:1039D00081469F4200D967602B1FDBB29846012BBE
:1039E00030D9C02380229B01E31812011A60294BB1
:1039F000AD0059599A4600291BD17301E02622686F
:103A000053401E40802342465B01E3181E60012A9A
:103A100030D9802380229B01E31812011A6053469B
:103A20004A4667605A51F0BCBB46B246A946A0461A
:103A3000F8BD586900F042FB013043001B18033BFE
:103A4000FDD2DAE75B46012BCBD1C02303229B01D9
:103A5000E3181A60023AA3681A42FCD07301E02608
:103A60002268AD0053401E4080230A4A5B01924603
:103A7000E3181E605A462168514003220A401A602A
:103A800001225B469A40A3681A42FCD0C1E7C046B7
:103A900000800040941A0020F0B546464F46D646B6
:103AA000C0B51F00344B44009C462418A400644455
:103AB000636888461600FF2B02D880235B00636092
:103AC000031FDBB29A46012B30D9C02380229B0111
:103AD000E31812011A60294B8500595999460029AB
:103AE0001BD17301E026226853401E4080235246BA
:103AF0005B01E3181E60012A30D9802380229B01DC
:103B0000E31812011A6080235B0063604B465F512B
:103B1000E0BCBA46B146A846F0BD586900F0CEFAFE
:103B2000013043001B18033BFDD2DAE74346012B6B
:103B3000CBD1C02303229B01E3181A60023AA36889
:103B40001A42FCD07301E0262268850053401E40D3
:103B500080230A4A5B019146E3181E6042462168B1
:103B6000514003220A401A60012342469340A26852
:103B70001342FCD0C1E7C04600800040941A0020E8
:103B8000014B8000C0587047941A0020F8B504001B
:103B900021481E0017000D0000F090FA01003800C7
:103BA00000F08CFA069B36041B031E432368002B8F
:103BB00020DB1A4B1A49E3185A1E934180229201C6
:103BC00094465B421B0B174A1B0363441360164A5F
:103BD00013601F000A689743FBD1144B2560E2185D
:103BE0002123A06013602368002BFCDA0823E66021
:103BF0001360F8BD3F2322681340AB42D9D1A368BC
:103C00001B051B0D8342D4D1EE22E368D202134080
:103C1000B342CED1EDE7C046001BB7000040FDBF68
:103C200008C0004000E0004000F000400430000008
:103C3000194B1A4A10B5DA618022194BD2051A6065
:103C4000184C194A146000290AD0E022174BD204FC
:103C50001A60002809D18022144B12061A6010BD88
:103C6000E022D2041A600028F5D043011B1A9B0001
:103C70001818802300015B04984209D203000C4A03
:103C800013608022044BD2055860084B1A60E6E7A7
:103C9000084B1800F3E7C046008005402131B76AA1
:103CA00000B00540FCFF01000820014000A00540D5
:103CB000F4BE0020FFFFFF0010B580241C4BE4057C
:103CC0001C6000281AD001231A4C18431A4BDC61DF
:103CD0001A4C44401C62596298628021144BC905F9
:103CE0001960174817490860E021C9041960002AC3
:103CF00007D18022144B12061A6010BD0E4BD861FA
:103D0000EBE753019B1A9B009A18802312015B0476
:103D10009A4209D213000D490B60074B5A6080226A
:103D2000094BD2051A60E8E7094B1A00F3E7C046D1
:103D300000B00540D3C007B0008005402D3FF84FCC
:103D4000FCFF01000820014000A00540F4BE002057
:103D5000FFFFFF008023024A9B000B43D3627047A2
:103D600000800540002310B50100988A1B8B9847FE
:103D700010BDC046162310B50100188802331B88F9
:103D8000984710BDF8B54746CE4680B50F1E18D0EF
:103D900014239946043304000025012698464B4617
:103DA0001888434621681B88984701C4431E9841E0
:103DB00001350640AF42F2D13000C0BCB946B04632
:103DC000F8BD0126F8E7C046002370B504000D00D9
:103DD000988A05491B8B984703000020002C01DBC3
:103DE0000130A0402900984755420000AA23064A06
:103DF0001B0113608D235B00D3600449044B1960E1
:103E00005368002BFCDA70470040024000B0FA0013
:103E1000006002407047C04610B50148FEF7E6FD5D
:103E2000B494001070B5074D074EB54209D2002476
:103E3000013E761BB60808CD984723000134B342F3
:103E4000F9D170BDD891001014920010054B064AAC
:103E500006491A60064A074B1A6010000B6898431F
:103E6000FBD1704700E00040BFCDFBFE08C0004022
:103E7000FE7F3C0000F00040044BDB6C002B03D1C4
:103E80008022034BD2021A607047C04600001150D6
:103E90004C201150044A054B1A60054A1368DB0197
:103EA0008033FBD17047C046FFFFFF0100F00040A8
:103EB00008C000404022034B9A675A671A67DA66C7
:103EC0007047C04600F0014010B5FEF72BFE10BD54
:103ED000F8B52749274C284D641AA4082200302C35
:103EE00000D930222800920001F0A2F82F2C3BD8F4
:103EF00030202F21A700EB195B07204A001BDB0FA6
:103F0000091B052916D92600002B01D0EA51661C91
:103F1000C01AE3189B004108EB18C900C9181A60C1
:103F20005A6008338B42FAD1012303421CD09843D4
:103F30008419A700EA51631C2F2C15D09B00EA506E
:103F4000A31C2E2C10D09B00EA50E31C2D2C0BD070
:103F50009B00EA50231D2C2C06D09B00EA50631DC9
:103F60002B2C01D09B00EA50054B9D60F8BDC0464C
:103F700000010010C001001000000020C10100106D
:103F800000ED00E0002310B5294C82B0A367FFF7D5
:103F90002DFF0122274B1A60636C012BFCD10322F9
:103FA000254B1A60224A936B012BFCD101330093FD
:103FB0000121224A22480433FFF7E8FD05230121AD
:103FC0000093204A2048FFF7E1FD0022022104204F
:103FD0001E4BFFF761FD0022012105201C4BFFF75E
:103FE0005BFD0022002107201A4BFFF755FD002240
:103FF00000210820174BFFF74FFD8023DB000093C3
:10400000002200210920134BFFF7CCFC0022104BAB
:1040100000210620FFF740FD0420FFF7B1FD0E4907
:1040200000F04CF801000020FFF794FE02B010BD34
:10403000008000403CB0004030B00040002F685984
:1040400000800240008C864700C00240001BB70081
:1040500040597307006CDC0240420F000148042104
:10406000014B1847D0100020853D0010124A936F75
:104070009B0815D29066D166002905D0FFE7FFE7BF
:10408000FFE7516F106F704704B580210906C21712
:104090005140002800D0C84305F08EF8002104BD2F
:1040A000F0B5146E556E576F166FFFF7E3FF146689
:1040B000556657671667F0BD000000D0114A936F30
:1040C0009B0813D210665166002905D0FFE7FFE771
:1040D000FFE7516F106F704704B5002801D0002032
:1040E000C04305F069F8002104BDC046F0B5146E68
:1040F000556E576F166FFFF7E5FF146655665767E5
:104100001667F0BD000000D094464A4A926F9208AC
:10411000624601D228E0C046F0B5464E346E756E58
:10412000776F366F00F020F89446424A1466556661
:10413000576716676246F0BD94463E4A926F9208F2
:10414000624601D254E0C046F0B53A4E346E756E08
:10415000776F366F00F04CF89446364A1466556611
:10416000576716676246F0BD002B24DB11D000298B
:104170003EDA00B5C943404200D1013100F038F8C1
:10418000C943404200D10131DB43524200D10133E7
:1041900000BD002AEBD1002801D1002905D0002064
:1041A000C90FC90701D1C043410800B504F0FCFFA5
:1041B0000022002300BD00B500290ADBDB43524288
:1041C00000D1013300F014F8C943404200D101315D
:1041D00000BDC943404200D10131DB43524200D10E
:1041E000013300F005F8DB43524200D1013300BD3A
:1041F000002923D1002B18D1002A0CD0BC460D4F2A
:1042000038667A6600210023FFE7FFE7FFE77A6F51
:10421000386F67467047002801D00748010000B595
:1042200004F0C2FF0022002300BD02000B000020AA
:1042300000217047000000D0FFFFFFFF002B00D0DF
:10424000BFE0130C28D1002AE7D080B4114F3966A3
:104250007A66FFE7FFE730B4040C7B6F396F1B040D
:1042600023433B667A66FFE7FFE7FFE7C04684B279
:104270007B6F3D6F1B0423433B667A66FFE7FFE7D6
:10428000C04600232C042D0C7A6F386F0019694149
:10429000B0BC7047000000D0F0B594460025140E65
:1042A00001D112020835140F01D112010435940F07
:1042B00001D192000235D40F01D152000135D40B47
:1042C0000134254F7C66254C3C660E0C93B2FFE70B
:1042D000FFE7FFE73C6F6643360C7703BE46734348
:1042E000DF0B5B04C01AB941130C7343DB18C91A06
:1042F000CE086643360CB64493B273431F0F1B01BE
:10430000C01AB941130C73431F0B1B05C01AB941E6
:10431000860D8F023E436643360C092D24DB520A7C
:104320007243801A7703460A6643360C16235B1BDA
:10433000DE40DF40BF1964466643821B7046043589
:1043400006330100D940A840C01900D30131A24270
:1043500006D20023F0BD0000000000D0FFFFFFFFE9
:10436000121B0130F3D3F1E709277F1BFE4064469F
:10437000A2B27243801A00D20139220C7243130C8C
:104380001204821A99410B0070460435133701005C
:10439000F940A840801900D30131002B02D1A2427C
:1043A0000AD2F0BD013000D30131121BFAD2013B19
:1043B000F8D1A24200D2F0BD013000D30131121B6E
:1043C000F7E7F0B51C0C00D080E00CB400251C0A07
:1043D00004D11B02160E3343120208351C0B04D104
:1043E0001B01160F3343120104359C0B04D19B00B3
:1043F000960F334392000235DC0B02D192185B41D9
:1044000001351C00971864410134464F7C66464CC8
:104410003C660E0CFFE7FFE7FFE7C0463C6F6643D4
:10442000360C7703BE4697B27743C01B00D20139E2
:10443000C01B00D201399FB27743C91BC91B170C9F
:1044400077437E04FF0B801BB941CE086643360CD0
:104450000C2D33DBB644120B1F053A431B0B97B2EE
:104460007743C01B00D201399FB27743C91B170C99
:1044700077433E043F0C801BB941860D8F023E43BB
:10448000664329277F1BFE400C3D7746AF40BF198E
:1044900030BCA2B2ABB272437343801A9941220C72
:1044A0007243130C1204801A994102000B00013769
:1044B000001BA941F9D2781E0021F0BD0C277F1BFB
:1044C000FE4077467F0BAF40FF19E0E700245D1CFC
:1044D00007D0144F7D663966FFE7FFE7FFE7FFE788
:1044E0003C6F95B29EB265436643401BB141150CCB
:1044F0001E0C6543664336042F0C3E432D04401BBF
:10450000B141994204D202000B0020000021F0BD0D
:1045100001D19042F7D3801A994101349942F2D3E4
:10452000F6E70000000000D0FFFFFFFF48404140D9
:10453000484018B41B4B5B68FC46019308BD04DF80
:10454000EF47001018B4174B1B68FC46019308BDD9
:1045500000DFF94700109446134A926F920809D27F
:10456000624618B40F4BDB68FC46019308BD0CDFB4
:10457000B14A00100C4AF0B5146E556E576F166FA5
:104580006246FFF7EEFF084A1466556657671667DE
:10459000F0BD18B4034B9B68FC46019308BD08DFCF
:1045A00055490010B8120020000000D0FFB550405F
:1045B0004240504059404B40594000E0FFB5154F34
:1045C0004C00640D03D0BC4204D10C0314D800206D
:1045D000090D09055C00640D03D0BC4204D11C0325
:1045E0000AD800221B0D1B0501264B4009D44B4065
:1045F00003D58B4200D18242FFBD9942FCD190424B
:10460000FFBD0B43DB1803431343F5D0C9434918DF
:10461000FFBD0000FF07000000B5FFF7CFFF80419E
:1046200000BDC04600B5FFF7C9FF01D9002000BD9D
:10463000012000BD00B5FFF7B9FF01D9002000BD82
:10464000012000BD00B5FFF7B1FF804100BD012092
:1046500040054A00121804D85A00121801D8002048
:1046600070470120704700000021002805D17047E5
:10467000C1174840401AFAD0C90713B5064B1B684A
:1046800098470CBC441CA2401005120B0349091B9F
:1046900009051943114310BD30BF00201F0400005D
:1046A00010B54C00620D8023D218DB00D21A5B05D6
:1046B0007E2A10DD9E3A13DACC1709034908194304
:1046C0005242D140640001341532202A05DAD0402C
:1046D0000843604310BD002010BD0846604310BD74
:1046E000C80FC018013810BD18B4044B5B6AFC46F3
:1046F000019308BD24DF614C00100000B8120020B7
:1047000018B4044BDB6FFC46019308BD7CDFE14C21
:1047100000100000B8120020132370B51D78012D81
:1047200019D014DD1F48FFF725FB06001E48FFF7D0
:1047300021FB1E4C80223100200000F079FC022D6C
:104740002DD01B48FFF70EFB1A4B186070BD1A4B9B
:10475000164CA364F5E7184B144C23606360A36008
:10476000E36023616361A361E36123626362A36227
:10477000E36223636363A363E36323646364A36407
:10478000E36423656365A365E36523666366A366E7
:10479000E36623676367A367E367A364D1E7064B18
:1047A000A364CEE75344000053460000B812002033
:1047B0004C33000030BF0020BD47001007B56046F5
:1047C00001880A0A0230DF2AFAD1C9B2820804D36A
:1047D000028840880004104300E00068014A5050FD
:1047E000039007BDB81200200FB403BC0CBCF0B599
:1047F0000124E407634000E0F0B50C0DCF0F661E06
:104800003605891B640503D3C943404200D30131F7
:10481000640D03D0661CF60A07D0E41B00207F005D
:10482000791C89078912803C24031D0DDF0F6E1E41
:1048300036059B1B6D0503D3DB43524200D3013386
:104840006D0D03D06E1CF60A07D0ED1B00227F0011
:104850007B1C9B079B12803D2D032F1B661B58D48E
:10486000A446202E46DA20371400BC401D00BD406F
:10487000F24033412A4380185941CB0F05D0C94338
:10488000C043002264425041514162464D0D28D13F
:104890000D0D07D100281FD0241940414941013A8C
:1048A0000D0DF9D0640006D3013000D30131002C86
:1048B00001D140084000013A0BD4941CE40A04D111
:1048C00012051144DB071944F0BDD907204B1943E9
:1048D00000E0D9070020F0BD0029DDD1002CDBD19C
:1048E000F0BD0132C6074008CD0728434908002E15
:1048F000E1D0D9E73C2E29DA203E40371400BC40F5
:1049000000D00124F24014431A00BB401C43D317CB
:10491000ACE7AC46202F08DA20360400B4400D0086
:10492000B540F84039412843A5E73C2F0CDA203F39
:1049300040360400B44000D00124F840044308008D
:10494000B1400C43C117EAE710001900002494E7B6
:104950000000F07FF0B50C0D661E3605891BE60AD7
:104960006405640D02D0651CED0A04D0002001210D
:104970000905803C2403A4461C0D671E3F05DB1B74
:10498000E70A6405640D02D0651CED0A04D000221C
:1049900001231B05803C24037740644497B484B210
:1049A00096B27443070C7E43150C6F4380B2684384
:1049B000361802D3012000043F183004350C0019CA
:1049C0007D41844688B29AB250430C0C62431F0C5E
:1049D0007C438EB27E43921902D301263604A41979
:1049E0001604170C3618674101BC81B29AB25143C4
:1049F000040C62431B0C5C4380B25843121802D370
:104A00000120000424181004130C401863412D18D1
:104A10005E410020474106BC88B293B258430C0C5B
:104A20006343120C544389B251435B1802D30121F2
:104A30000904641819041A0C091862416D185641CA
:104A40000020474118BCF902720D1143F0026A0DB3
:104A50001043ED020A0D03D16D1940414941013B5C
:104A6000124E9B1B7600B3420ED26D0007D301306D
:104A7000002671416646354301D1400840001B05C0
:104A8000C918E4072144F0BD0BDA013306D1013027
:104A900004D101314F0D01D04908F2E7E1070020B0
:104AA000F0BD013631050020EBE70000FF030000F8
:104AB000F0B51C0D671E3F05DB1BE70A6405640D9E
:104AC00002D0661CF60A04D0002201231B05803C9C
:104AD0002403D0252D060026F6432E661E096E6699
:104AE000CE0FF619B44649004F0D02D07E1CF60ACF
:104AF00003D000200021403F3F033E1BB600B444DA
:104B0000013F7F05C91B49082E6F013676089C02BC
:104B1000950D25437543ED137543AD1301356D10A8
:104B2000F603761B0CB4CC02450D2C43A2B2B3B2F3
:104B30005A43270C7B43350C6F43A4B26C431B19BB
:104B400002D3012424043F191C041D0CA4187D4128
:104B500024196D41009A91B2ACB26143170C7C43A9
:104B60002B0C5F4392B25A43A41802D301221204C1
:104B7000BF182204230C52187B41019C6C431B1963
:104B8000520ED9010A434401A01A81B2B2B2514374
:104B900003145A43360C734387B27743D617D2199E
:104BA00000277E4136049B191704160C7F185E41BE
:104BB0007316ED18F301002680337541A90F06D155
:104BC0006400690AE8055B0A184309D22FE0042251
:104BD000944480337541A90AA8059B0A184326D33B
:104BE000404149412404009A019B0D005543641B38
:104BF0004343E41A95B286B27543170C7E43030C07
:104C00005F4392B25A43B61802D301221204BF186E
:104C10003204330C52197B4152429C41002C02D485
:104C20000022013051414008CA071043490802B030
:104C30006246D7079210084BD218084B9A4203D20B
:104C400012058918C919F0BD0020002A01DC3900BD
:104C5000F0BD01331905F5E7FD030000FE07000074
:104C6000002200B5203200F004F8080000BD00006A
:104C700000220B150AD410B5944600F05FF8141406
:104C8000013400DA0021CB17144C2047002000210A
:104C900070476244343A0CD40C2A07DA040091407D
:104CA000904052422032D440214310BDD843D943D2
:104CB00010BD203207D40C4694405242203211419C
:104CC000D040204310BD0800C917203203D45242FF
:104CD0002032104110BD1800190010BD934C001077
:104CE0004A00520D144BD21A13DDFF2A1EDAD205E8
:104CF000CB0FDB071A43C300400F0903490A0843DF
:104D000010435B0001D301D0013070474308FBD250
:104D1000704702D0C80FC00770470A031213013250
:104D2000F8D1420F072AF5D1012200E0FF22C80F77
:104D300000028018C0057047800300000A0DCC0FE8
:104D4000531E1B05C91A520503D3C943404200D361
:104D50000131520D03D0531CDB0A07D0121B002077
:104D60006400611C89078912803A1203014BD21A30
:104D700070470000FF03000051434343C9188C46AD
:104D8000110C83B24B4310B4040C614392B280B255
:104D9000504362431C041B0C001910BC59411304FE
:104DA000120CC01851416144704700004840414016
:104DB00048400E4B5B6818470C4B1B6818470C4A61
:104DC000936F9B0802D2094BDB681847F0B5146E4D
:104DD000556E576F166FFFF7F6FF054A1466556656
:104DE00057671667F0BD014B9B681847B813002042
:104DF000000000D007B548404140484001E0C046AF
:104E000007B54200120E03D0FF2A03D1420218D880
:104E1000C00DC0054A00120E03D0FF2A03D14A027A
:104E20000FD8C90DC9050122414005D4414001D523
:104E3000814207BD884207BD0143491801D0C043E4
:104E4000001807BD00B5FFF7DBFF804100BDC0467D
:104E500000B5FFF7CFFF01D9002000BD012000BD44
:104E600000B5FFF7C7FF804100BD491A002807D1F0
:104E700008467047C10FC90700D54042002817D027
:104E8000F44603B40B4B1B68984706BC81409E3820
:104E90004042803107D20B0607D04900490AC005BD
:104EA0001043084360470130F8E7490A8902F5E7F3
:104EB0007047000030BF002041000A0E80231B060F
:104EC0007E2A0BDD9E3A0BDAC117400240081843D8
:104ED0005242D0404900013148437047002070479A
:104EE000C00FC01801387047C0420DD300B5400054
:104EF0004008002100F012F8002801D4404200BD13
:104F00008020000600BD0000034BDB69FC4618470B
:104F10001CDFCD4F00100000B8130020014B5B6A6E
:104F200018470000B8130020034BDB6FFC461847FE
:104F30007CDFE54F00100000B8130020132310B5EC
:104F400012481C78FEF716FF0100012C0AD003DD81
:104F500080220F4800F06CF80E48FEF703FF0E4B5E
:104F6000186010BD0A4C5422200000F061F80B4B71
:104F70006365A365E36523666366A366E3662367EB
:104F80006367A367E3672362E361E5E753460000D5
:104F9000B81300204C33000030BF0020A14F001098
:104FA00007B5604601880A0A0230DF2AFAD1C9B281
:104FB000820804D3028840880004104300E000689F
:104FC000014A5050039007BDB81300200021C215BC
:104FD0008032803201D0024A104700207047000022
:104FE000CD2A0000C30FDB0741000A0E07D0FF2ABD
:104FF00008D00909054A8918194340077047190064
:10500000002070470249C918FAE700000000003884
:105010000000F07F01480421014B1847E0100020F8
:10502000853D0010014B1B6818470000E010002070
:10503000014B5B6818470000E01000209A4200D244
:10504000885470477047C046F8B55746DE464E460E
:105050004546E0B599460A9B07009A460D9B88464F
:1050600093460B9C9B073BD10C9B9C423DD21E1B45
:105070000B9415000C005E442A004B4601352100BC
:105080002020B847B542F7D1A0460B9C002C20D079
:10509000454636195346321B013C185D29004B46E4
:1050A000B847002CF6D12B00350098460D9B9B0786
:1050B0000FD55B46EC1A0C9BA3420AD9464698468C
:1050C0002A004B46310020200134B84701354445C1
:1050D000F6D32800F0BCBB46B246A946A046F8BDB0
:1050E00016001500002CD3D1E0E716001500002CA7
:1050F000CED1EEE7F0B54546DE4657464E46E0B522
:1051000085B09C4610AB1B78149F934698460F9C25
:10511000129E139DBB074CD4002D42D1B44248D2FD
:1051200001233B4099460E9B013B9A46302304E005
:10513000524601341355A64201D9202CF8D14B46D2
:10514000002B00D183E00E9B013B99463023A54202
:1051500005D82EE04A4601341355AC4229D0202C04
:10516000F8D1FB060CD57B0554D4A64263D0A542EA
:1051700061D0119B102B50D0022B57D0202C32D154
:10518000202301930E9B5A46009303976346029592
:10519000FFF75AFF05B0F0BCBB46B246A946A04691
:1051A000F0BD01233B40994601233B422AD1B44242
:1051B000B9D3FB061CD57B05DBD4002CD5D1119BC4
:1051C000102B5BD0119B022B6BD0302301240E9A45
:1051D00013704346002B10D17B073ED52B260E9A29
:1051E000631C1655CDE72300013430260E9AD654A1
:1051F000202CC5D04346002BEED02D260E9A631CE2
:105200001655BEE74346002B2FD0013DB44200D2D5
:1052100089E798E7119B102BB2D1BB0637D5202C1C
:10522000AED058230E9A13550134A7E7202CA7D0EF
:105230002300013407E0631E012CC0D0119A102A0C
:1052400031D0022AD1D162260E9AD65496E7FB06B7
:10525000CED57B0500D488E78BE723003E0790D5A9
:1052600020260E9A013316558BE70C233B405A1E1D
:105270009341ED1AB44200D255E764E7BB060ED461
:1052800078230E9A0224137030235370A1E7202C48
:1052900000D175E778230E9A135501346EE7582331
:1052A000EFE76033EDE70E9AA61E91464E44BA062C
:1052B00002D55822327098E77822327095E7C046BE
:1052C00010B5002800D110BD01F046FCFBE7C04638
:1052D000F0B55746DE464E464546E0B595B08346A6
:1052E0000F00924698461E9A1F9B10001900209EA0
:1052F000FFF7ADF9002800D0EAE11E981F990122BE
:10530000C54B5242FFF788F9002800D014E11E98DF
:105310001F990122C14B5242FFF794F9002800D097
:10532000E9E01E981F990022BD4BFFF78BF900287A
:1053300000D0C8E01E981F990022BA4BFFF76CF905
:10534000002800D0BFE01E981F9900220023FFF71D
:1053500063F9002800D0E4E000230B93229B5B0557
:1053600000D406260024302307E0172106AA0134C2
:1053700052181355013E202C01D0092EF5D81E9845
:105380001F99FFF78DF9A84BF2009B181A685B680C
:10539000050008920993FFF76BF902000B001E98B5
:1053A0001F99FFF7C6F8089A099BFFF7F2F80690D5
:1053B0000791FFF799F98146FFF756F902000B00B4
:1053C00006980799FFF7B5F80022984B06900791C9
:1053D000FFF738F9002800D10DE101239C46E14494
:1053E0004846FFF741F902000B0008980999FFF7BA
:1053F00019F9002802D0002399460135002E00D16A
:10540000D9E006954D46B94614E006AA94461723FE
:105410000A216344280001341F19FEF74FFE303182
:10542000397028000A21013EFEF748FE092D00D8F8
:1054300017E10500202CE8D14F46069D20240CAE34
:1054400006AA17239446634499465B46B3460693DF
:105450000FE04B4628000A210134E618FEF706FE4D
:105460003031280031700A21FEF700FE051E00D100
:10547000E4E0202CEDD1069B5E469B460323229A56
:105480001340012B18D1219B002B15D00B9B002B17
:1054900000D1FDE0219B013B2193202B0CD930232F
:1054A000219A07E0172006A9013409180B559442E8
:1054B00000D3CCE0202CF5D1229B01940393219BB7
:1054C0000096029322E0229B52460493219B3900CE
:1054D000039358461E9B1F9C0296009301944346DB
:1054E00000F04AF90400200015B0F0BCBB46B246FB
:1054F000A946A046F0BD229B5B070FD403224C4B6C
:1055000022990192039121990093029143465246B8
:1055100039005846FFF798FD0400E4E70422454BA4
:10552000EEE71E9A1F9B00200021FFF702F80123DF
:105530001E901F910B9311E7229B54469B0711D19C
:10554000219B042B0ED9219B55469C465E46043C6C
:1055500064442A004346013539002020B047A54263
:10556000F7D1B346344D26002B1F99465B46A34620
:105570001C003200E87843463900013DA04701365F
:105580004D45F6D123005C469B46229B04349B0785
:10559000A9D55346219AE31A9A42A4D95E4615002A
:1055A0002200434639002020B04753460134E31A15
:1055B0009D42F5D897E72800FFF75AF802000B0044
:1055C0001E981F99FEF7B5FF0022184B0690079111
:1055D000FFF722F80CAE002800D031E706980799B3
:1055E0000022124BFFF72EF8002800D028E70123F5
:1055F00001359D4324E70022069807990B4BFFF7DE
:105600000BF8002800D0F9E64B46002B5CD10123B3
:105610009C46E144F2E6C046FFFFEFFFFFFFEF7F4D
:1056200065CDCD4165CDCDC1483D01100000E03FC5
:105630000C9500100495001014950010069B5E4612
:105640009B460323229A1340012B00D181E0202C9A
:1056500000D131E70B9B002B27D02D23335501348C
:105660002AE74F46069D202C00D1E7E63022331969
:1056700007E0172006A9013409180A55202C00D18B
:10568000DCE6A342F5D12E220CAE0134F254D7E66B
:105690000C23229A134257D0219B013B2193A34212
:1056A00000D9FCE6202C00D106E7229B5B0703D53E
:1056B0002B2333550134FFE6229B1B0700D4FBE666
:1056C000202333550134F7E6DB0700D496E69EE746
:1056D000229B55469B0711D1219B032B0ED9219B61
:1056E00054469C465E46033D6544220043460134D1
:1056F00039002020B047AC42F7D1B346B9465F46E7
:105700001C4EEC1C2A00B078434649460135B84788
:10571000013EAC42F6D1229BBB464F469B0700D4CC
:10572000E1E65346219AE31A9A4200D8DBE65E4648
:1057300015002200434639002020B047534601346B
:10574000E31AAB42F5D3CEE6219BA34200D9A6E6ED
:10575000B2E6219B002B00D179E70B9B002B97D061
:10576000219B013B21939C4200D298E6202C00D043
:1057700073E7A1E610950010F0B5DE4657464E4699
:105780004546E0B599B081468B4692469846229AA6
:10579000239B10001900FEF75AFF002800D0CAE032
:1057A000229823990122824B5242FEF74BFF002898
:1057B00000D0C0E02298239901227E4B5242FEF78E
:1057C0002BFF002800D0B6E0229823990022002366
:1057D000FEF722FF002800D0C9E1229B239C0893FA
:1057E0000994089809998023269ADB001A400D92A3
:1057F0008022269C1201144022000B94269C070054
:105800000E001C4200D0ADE00B00034300D0D5E0F9
:10581000002A00D00AE22200063324930223134018
:105820000C930223134200D002E2259B042B00D2EA
:105830000FE2043B0B93002304250A9300222298D5
:1058400023990023FEF7E8FE002800D003E25A4B1C
:10585000269A134004930B9B0393249B0293089B6B
:10586000099C009301945946434652464846FFF727
:105870002FFD02002020269B1F27034059424B4149
:105880005B421840531C0893594643464530C8476D
:105890000A9AD317D4185C40D30F0A936B1E0B934C
:1058A00008AB9C460025674401E0202D0FD0200066
:1058B0000A21FEF703FC01357E19303131702000DA
:1058C0000A21FEF7FBFB26000400092EEDD8052374
:1058D00006930B9B59460593002304930A330393C5
:1058E0000A9B4846029310AB0093089A43460195E1
:1058F000FFF700FC0C9B002B2DD05346C41A259BB0
:10590000A34228D94D465F4681461E0053463900C2
:105910001A19202043460134A847A642F6D8534618
:1059200048462599C21A01320023914200D386E1EC
:10593000013018180FE0269B0493259B0393249BAA
:105940000293229B239C009301944346524659465E
:105950004846FFF7BDFC19B0F0BCBB46B246A946AD
:10596000A046F0BD01432BD10B9B2200002B00D1A0
:1059700054E700230A93249B0A9A0024934200DDF3
:1059800085E12298239900220023FEF745FE002896
:1059900000D035E1269B084A02941A408023DB00A0
:1059A00013430493259B0393089B099CCBE7C046B4
:1059B000FFFFEF7FFFFFEFFFFFF7FFFF06232493BB
:1059C000B44B70009C46400D6044FEF751FEB24A55
:1059D000B24BFEF7DEFDB24AB24BFEF7B3FD360323
:1059E000B14B360B334304000D0038001900002280
:1059F000AE4BFEF79EFDAE4AAE4BFEF7CAFD02006F
:105A00000B0020002900FEF79DFDFEF749FE0A90DD
:105A1000FEF72EFEA84AA94B04000D00FEF7B9FDC3
:105A20000022A74BFEF78EFDFEF73AFEA54A0600C0
:105A3000A54B20002900FEF7ACFD040030000D004E
:105A40000C96FEF715FEA14AA14BFEF7A2FD02003F
:105A50000B0020002900FEF76CFD02000B00060081
:105A60000F00FEF796FD320004000D003B003000F1
:105A70003900FEF767FD00220E900F91954B200034
:105A80002900FEF768FD0022934BFEF75BFD020044
:105A90000B0020002900FEF75EFD00228F4BFEF771
:105AA00051FD02000B0020002900FEF754FD0D00FF
:105AB0008021040032003B000020C905FEF739FDBB
:105AC00002000B0020002900FEF73CFD02000B0045
:105AD0000E980F99FEF73FFD0022734BFEF732FD43
